{
  "_format": "hh-sol-artifact-1",
  "contractName": "RWAPropertyToken",
  "sourceName": "contracts/RWAPropertyToken.sol",
  "abi": [
    {
      "inputs": [
        {
          "internalType": "string",
          "name": "name_",
          "type": "string"
        },
        {
          "internalType": "string",
          "name": "symbol_",
          "type": "string"
        },
        {
          "internalType": "string",
          "name": "assetId_",
          "type": "string"
        },
        {
          "internalType": "string",
          "name": "assetLocation_",
          "type": "string"
        },
        {
          "internalType": "uint256",
          "name": "assetValuationUsd_",
          "type": "uint256"
        },
        {
          "internalType": "uint256",
          "name": "initialSupply_",
          "type": "uint256"
        },
        {
          "internalType": "address",
          "name": "initialHolder_",
          "type": "address"
        }
      ],
      "stateMutability": "nonpayable",
      "type": "constructor"
    },
    {
      "anonymous": false,
      "inputs": [
        {
          "indexed": true,
          "internalType": "address",
          "name": "owner",
          "type": "address"
        },
        {
          "indexed": true,
          "internalType": "address",
          "name": "spender",
          "type": "address"
        },
        {
          "indexed": false,
          "internalType": "uint256",
          "name": "value",
          "type": "uint256"
        }
      ],
      "name": "Approval",
      "type": "event"
    },
    {
      "anonymous": false,
      "inputs": [
        {
          "indexed": true,
          "internalType": "address",
          "name": "owner",
          "type": "address"
        },
        {
          "indexed": false,
          "internalType": "uint256",
          "name": "totalSupply",
          "type": "uint256"
        }
      ],
      "name": "Fractionalized",
      "type": "event"
    },
    {
      "anonymous": false,
      "inputs": [
        {
          "indexed": true,
          "internalType": "address",
          "name": "previousOwner",
          "type": "address"
        },
        {
          "indexed": true,
          "internalType": "address",
          "name": "newOwner",
          "type": "address"
        }
      ],
      "name": "OwnershipTransferred",
      "type": "event"
    },
    {
      "anonymous": false,
      "inputs": [
        {
          "indexed": true,
          "internalType": "address",
          "name": "from",
          "type": "address"
        },
        {
          "indexed": true,
          "internalType": "address",
          "name": "to",
          "type": "address"
        },
        {
          "indexed": false,
          "internalType": "uint256",
          "name": "value",
          "type": "uint256"
        }
      ],
      "name": "Transfer",
      "type": "event"
    },
    {
      "inputs": [
        {
          "internalType": "address",
          "name": "owner",
          "type": "address"
        },
        {
          "internalType": "address",
          "name": "spender",
          "type": "address"
        }
      ],
      "name": "allowance",
      "outputs": [
        {
          "internalType": "uint256",
          "name": "",
          "type": "uint256"
        }
      ],
      "stateMutability": "view",
      "type": "function"
    },
    {
      "inputs": [
        {
          "internalType": "address",
          "name": "spender",
          "type": "address"
        },
        {
          "internalType": "uint256",
          "name": "amount",
          "type": "uint256"
        }
      ],
      "name": "approve",
      "outputs": [
        {
          "internalType": "bool",
          "name": "",
          "type": "bool"
        }
      ],
      "stateMutability": "nonpayable",
      "type": "function"
    },
    {
      "inputs": [],
      "name": "assetId",
      "outputs": [
        {
          "internalType": "string",
          "name": "",
          "type": "string"
        }
      ],
      "stateMutability": "view",
      "type": "function"
    },
    {
      "inputs": [],
      "name": "assetLocation",
      "outputs": [
        {
          "internalType": "string",
          "name": "",
          "type": "string"
        }
      ],
      "stateMutability": "view",
      "type": "function"
    },
    {
      "inputs": [],
      "name": "assetValuationUsd",
      "outputs": [
        {
          "internalType": "uint256",
          "name": "",
          "type": "uint256"
        }
      ],
      "stateMutability": "view",
      "type": "function"
    },
    {
      "inputs": [
        {
          "internalType": "address",
          "name": "account",
          "type": "address"
        }
      ],
      "name": "balanceOf",
      "outputs": [
        {
          "internalType": "uint256",
          "name": "",
          "type": "uint256"
        }
      ],
      "stateMutability": "view",
      "type": "function"
    },
    {
      "inputs": [
        {
          "internalType": "address",
          "name": "account",
          "type": "address"
        },
        {
          "internalType": "uint256",
          "name": "amount",
          "type": "uint256"
        }
      ],
      "name": "burn",
      "outputs": [],
      "stateMutability": "nonpayable",
      "type": "function"
    },
    {
      "inputs": [],
      "name": "decimals",
      "outputs": [
        {
          "internalType": "uint8",
          "name": "",
          "type": "uint8"
        }
      ],
      "stateMutability": "view",
      "type": "function"
    },
    {
      "inputs": [
        {
          "internalType": "address",
          "name": "spender",
          "type": "address"
        },
        {
          "internalType": "uint256",
          "name": "subtractedValue",
          "type": "uint256"
        }
      ],
      "name": "decreaseAllowance",
      "outputs": [
        {
          "internalType": "bool",
          "name": "",
          "type": "bool"
        }
      ],
      "stateMutability": "nonpayable",
      "type": "function"
    },
    {
      "inputs": [
        {
          "internalType": "address",
          "name": "spender",
          "type": "address"
        },
        {
          "internalType": "uint256",
          "name": "addedValue",
          "type": "uint256"
        }
      ],
      "name": "increaseAllowance",
      "outputs": [
        {
          "internalType": "bool",
          "name": "",
          "type": "bool"
        }
      ],
      "stateMutability": "nonpayable",
      "type": "function"
    },
    {
      "inputs": [
        {
          "internalType": "address",
          "name": "account",
          "type": "address"
        },
        {
          "internalType": "uint256",
          "name": "amount",
          "type": "uint256"
        }
      ],
      "name": "mint",
      "outputs": [],
      "stateMutability": "nonpayable",
      "type": "function"
    },
    {
      "inputs": [],
      "name": "name",
      "outputs": [
        {
          "internalType": "string",
          "name": "",
          "type": "string"
        }
      ],
      "stateMutability": "view",
      "type": "function"
    },
    {
      "inputs": [],
      "name": "owner",
      "outputs": [
        {
          "internalType": "address",
          "name": "",
          "type": "address"
        }
      ],
      "stateMutability": "view",
      "type": "function"
    },
    {
      "inputs": [],
      "name": "renounceOwnership",
      "outputs": [],
      "stateMutability": "nonpayable",
      "type": "function"
    },
    {
      "inputs": [],
      "name": "symbol",
      "outputs": [
        {
          "internalType": "string",
          "name": "",
          "type": "string"
        }
      ],
      "stateMutability": "view",
      "type": "function"
    },
    {
      "inputs": [],
      "name": "totalSupply",
      "outputs": [
        {
          "internalType": "uint256",
          "name": "",
          "type": "uint256"
        }
      ],
      "stateMutability": "view",
      "type": "function"
    },
    {
      "inputs": [
        {
          "internalType": "address",
          "name": "to",
          "type": "address"
        },
        {
          "internalType": "uint256",
          "name": "amount",
          "type": "uint256"
        }
      ],
      "name": "transfer",
      "outputs": [
        {
          "internalType": "bool",
          "name": "",
          "type": "bool"
        }
      ],
      "stateMutability": "nonpayable",
      "type": "function"
    },
    {
      "inputs": [
        {
          "internalType": "address",
          "name": "from",
          "type": "address"
        },
        {
          "internalType": "address",
          "name": "to",
          "type": "address"
        },
        {
          "internalType": "uint256",
          "name": "amount",
          "type": "uint256"
        }
      ],
      "name": "transferFrom",
      "outputs": [
        {
          "internalType": "bool",
          "name": "",
          "type": "bool"
        }
      ],
      "stateMutability": "nonpayable",
      "type": "function"
    },
    {
      "inputs": [
        {
          "internalType": "address",
          "name": "newOwner",
          "type": "address"
        }
      ],
      "name": "transferOwnership",
      "outputs": [],
      "stateMutability": "nonpayable",
      "type": "function"
    }
  ],
  "bytecode": "0x60806040523480156200001157600080fd5b50604051620027be380380620027be833981810160405281019062000037919062000591565b868681600390816200004a919062000901565b5080600490816200005c919062000901565b5050506200007f620000736200011960201b60201c565b6200012160201b60201c565b846006908162000090919062000901565b508360079081620000a2919062000901565b5082600881905550620000bc8183620001e760201b60201c565b8073ffffffffffffffffffffffffffffffffffffffff167f4356f3fd5c3bfc18a01590adcccb99d62f10c4096f5200887c659cc52043e25483604051620001049190620009f9565b60405180910390a25050505050505062000b03565b600033905090565b6000600560009054906101000a900473ffffffffffffffffffffffffffffffffffffffff16905081600560006101000a81548173ffffffffffffffffffffffffffffffffffffffff021916908373ffffffffffffffffffffffffffffffffffffffff1602179055508173ffffffffffffffffffffffffffffffffffffffff168173ffffffffffffffffffffffffffffffffffffffff167f8be0079c531659141344cd1fd0a4f28419497f9722a3daafe3b4186f6b6457e060405160405180910390a35050565b600073ffffffffffffffffffffffffffffffffffffffff168273ffffffffffffffffffffffffffffffffffffffff160362000259576040517f08c379a0000000000000000000000000000000000000000000000000000000008152600401620002509062000a77565b60405180910390fd5b6200026d600083836200035460201b60201c565b806002600082825462000281919062000ac8565b92505081905550806000808473ffffffffffffffffffffffffffffffffffffffff1673ffffffffffffffffffffffffffffffffffffffff168152602001908152602001600020600082825401925050819055508173ffffffffffffffffffffffffffffffffffffffff16600073ffffffffffffffffffffffffffffffffffffffff167fddf252ad1be2c89b69c2b068fc378daa952ba7f163c4a11628f55a4df523b3ef83604051620003349190620009f9565b60405180910390a362000350600083836200035960201b60201c565b5050565b505050565b505050565b6000604051905090565b600080fd5b600080fd5b600080fd5b600080fd5b6000601f19601f8301169050919050565b7f4e487b7100000000000000000000000000000000000000000000000000000000600052604160045260246000fd5b620003c7826200037c565b810181811067ffffffffffffffff82111715620003e957620003e86200038d565b5b80604052505050565b6000620003fe6200035e565b90506200040c8282620003bc565b919050565b600067ffffffffffffffff8211156200042f576200042e6200038d565b5b6200043a826200037c565b9050602081019050919050565b60005b83811015620004675780820151818401526020810190506200044a565b60008484015250505050565b60006200048a620004848462000411565b620003f2565b905082815260208101848484011115620004a957620004a862000377565b5b620004b684828562000447565b509392505050565b600082601f830112620004d657620004d562000372565b5b8151620004e884826020860162000473565b91505092915050565b6000819050919050565b6200050681620004f1565b81146200051257600080fd5b50565b6000815190506200052681620004fb565b92915050565b600073ffffffffffffffffffffffffffffffffffffffff82169050919050565b600062000559826200052c565b9050919050565b6200056b816200054c565b81146200057757600080fd5b50565b6000815190506200058b8162000560565b92915050565b600080600080600080600060e0888a031215620005b357620005b262000368565b5b600088015167ffffffffffffffff811115620005d457620005d36200036d565b5b620005e28a828b01620004be565b975050602088015167ffffffffffffffff8111156200060657620006056200036d565b5b620006148a828b01620004be565b965050604088015167ffffffffffffffff8111156200063857620006376200036d565b5b620006468a828b01620004be565b955050606088015167ffffffffffffffff8111156200066a57620006696200036d565b5b620006788a828b01620004be565b94505060806200068b8a828b0162000515565b93505060a06200069e8a828b0162000515565b92505060c0620006b18a828b016200057a565b91505092959891949750929550565b600081519050919050565b7f4e487b7100000000000000000000000000000000000000000000000000000000600052602260045260246000fd5b600060028204905060018216806200071357607f821691505b602082108103620007295762000728620006cb565b5b50919050565b60008190508160005260206000209050919050565b60006020601f8301049050919050565b600082821b905092915050565b600060088302620007937fffffffffffffffffffffffffffffffffffffffffffffffffffffffffffffffff8262000754565b6200079f868362000754565b95508019841693508086168417925050509392505050565b6000819050919050565b6000620007e2620007dc620007d684620004f1565b620007b7565b620004f1565b9050919050565b6000819050919050565b620007fe83620007c1565b620008166200080d82620007e9565b84845462000761565b825550505050565b600090565b6200082d6200081e565b6200083a818484620007f3565b505050565b5b8181101562000862576200085660008262000823565b60018101905062000840565b5050565b601f821115620008b1576200087b816200072f565b620008868462000744565b8101602085101562000896578190505b620008ae620008a58562000744565b8301826200083f565b50505b505050565b600082821c905092915050565b6000620008d660001984600802620008b6565b1980831691505092915050565b6000620008f18383620008c3565b9150826002028217905092915050565b6200090c82620006c0565b67ffffffffffffffff8111156200092857620009276200038d565b5b620009348254620006fa565b6200094182828562000866565b600060209050601f83116001811462000979576000841562000964578287015190505b620009708582620008e3565b865550620009e0565b601f19841662000989866200072f565b60005b82811015620009b3578489015182556001820191506020850194506020810190506200098c565b86831015620009d35784890151620009cf601f891682620008c3565b8355505b6001600288020188555050505b505050505050565b620009f381620004f1565b82525050565b600060208201905062000a106000830184620009e8565b92915050565b600082825260208201905092915050565b7f45524332303a206d696e7420746f20746865207a65726f206164647265737300600082015250565b600062000a5f601f8362000a16565b915062000a6c8262000a27565b602082019050919050565b6000602082019050818103600083015262000a928162000a50565b9050919050565b7f4e487b7100000000000000000000000000000000000000000000000000000000600052601160045260246000fd5b600062000ad582620004f1565b915062000ae283620004f1565b925082820190508082111562000afd5762000afc62000a99565b5b92915050565b611cab8062000b136000396000f3fe608060405234801561001057600080fd5b50600436106101215760003560e01c806370a08231116100ad5780639dc29fac116100715780639dc29fac146102fc578063a457c2d714610318578063a9059cbb14610348578063dd62ed3e14610378578063f2fde38b146103a857610121565b806370a0823114610268578063715018a614610298578063776cdb7c146102a25780638da5cb5b146102c057806395d89b41146102de57610121565b8063313ce567116100f4578063313ce567146101c257806339509351146101e057806340c10f191461021057806344de240a1461022c5780634b22b3c81461024a57610121565b806306fdde0314610126578063095ea7b31461014457806318160ddd1461017457806323b872dd14610192575b600080fd5b61012e6103c4565b60405161013b91906112d0565b60405180910390f35b61015e6004803603810190610159919061138b565b610456565b60405161016b91906113e6565b60405180910390f35b61017c610479565b6040516101899190611410565b60405180910390f35b6101ac60048036038101906101a7919061142b565b610483565b6040516101b991906113e6565b60405180910390f35b6101ca6104b2565b6040516101d7919061149a565b60405180910390f35b6101fa60048036038101906101f5919061138b565b6104bb565b60405161020791906113e6565b60405180910390f35b61022a6004803603810190610225919061138b565b6104f2565b005b610234610508565b60405161024191906112d0565b60405180910390f35b610252610596565b60405161025f9190611410565b60405180910390f35b610282600480360381019061027d91906114b5565b61059c565b60405161028f9190611410565b60405180910390f35b6102a06105e4565b005b6102aa6105f8565b6040516102b791906112d0565b60405180910390f35b6102c8610686565b6040516102d591906114f1565b60405180910390f35b6102e66106b0565b6040516102f391906112d0565b60405180910390f35b6103166004803603810190610311919061138b565b610742565b005b610332600480360381019061032d919061138b565b610758565b60405161033f91906113e6565b60405180910390f35b610362600480360381019061035d919061138b565b6107cf565b60405161036f91906113e6565b60405180910390f35b610392600480360381019061038d919061150c565b6107f2565b60405161039f9190611410565b60405180910390f35b6103c260048036038101906103bd91906114b5565b610879565b005b6060600380546103d39061157b565b80601f01602080910402602001604051908101604052809291908181526020018280546103ff9061157b565b801561044c5780601f106104215761010080835404028352916020019161044c565b820191906000526020600020905b81548152906001019060200180831161042f57829003601f168201915b5050505050905090565b6000806104616108fc565b905061046e818585610904565b600191505092915050565b6000600254905090565b60008061048e6108fc565b905061049b858285610acd565b6104a6858585610b59565b60019150509392505050565b60006012905090565b6000806104c66108fc565b90506104e78185856104d885896107f2565b6104e291906115db565b610904565b600191505092915050565b6104fa610dcf565b6105048282610e4d565b5050565b600680546105159061157b565b80601f01602080910402602001604051908101604052809291908181526020018280546105419061157b565b801561058e5780601f106105635761010080835404028352916020019161058e565b820191906000526020600020905b81548152906001019060200180831161057157829003601f168201915b505050505081565b60085481565b60008060008373ffffffffffffffffffffffffffffffffffffffff1673ffffffffffffffffffffffffffffffffffffffff168152602001908152602001600020549050919050565b6105ec610dcf565b6105f66000610fa3565b565b600780546106059061157b565b80601f01602080910402602001604051908101604052809291908181526020018280546106319061157b565b801561067e5780601f106106535761010080835404028352916020019161067e565b820191906000526020600020905b81548152906001019060200180831161066157829003601f168201915b505050505081565b6000600560009054906101000a900473ffffffffffffffffffffffffffffffffffffffff16905090565b6060600480546106bf9061157b565b80601f01602080910402602001604051908101604052809291908181526020018280546106eb9061157b565b80156107385780601f1061070d57610100808354040283529160200191610738565b820191906000526020600020905b81548152906001019060200180831161071b57829003601f168201915b5050505050905090565b61074a610dcf565b6107548282611069565b5050565b6000806107636108fc565b9050600061077182866107f2565b9050838110156107b6576040517f08c379a00000000000000000000000000000000000000000000000000000000081526004016107ad90611681565b60405180910390fd5b6107c38286868403610904565b60019250505092915050565b6000806107da6108fc565b90506107e7818585610b59565b600191505092915050565b6000600160008473ffffffffffffffffffffffffffffffffffffffff1673ffffffffffffffffffffffffffffffffffffffff16815260200190815260200160002060008373ffffffffffffffffffffffffffffffffffffffff1673ffffffffffffffffffffffffffffffffffffffff16815260200190815260200160002054905092915050565b610881610dcf565b600073ffffffffffffffffffffffffffffffffffffffff168173ffffffffffffffffffffffffffffffffffffffff16036108f0576040517f08c379a00000000000000000000000000000000000000000000000000000000081526004016108e790611713565b60405180910390fd5b6108f981610fa3565b50565b600033905090565b600073ffffffffffffffffffffffffffffffffffffffff168373ffffffffffffffffffffffffffffffffffffffff1603610973576040517f08c379a000000000000000000000000000000000000000000000000000000000815260040161096a906117a5565b60405180910390fd5b600073ffffffffffffffffffffffffffffffffffffffff168273ffffffffffffffffffffffffffffffffffffffff16036109e2576040517f08c379a00000000000000000000000000000000000000000000000000000000081526004016109d990611837565b60405180910390fd5b80600160008573ffffffffffffffffffffffffffffffffffffffff1673ffffffffffffffffffffffffffffffffffffffff16815260200190815260200160002060008473ffffffffffffffffffffffffffffffffffffffff1673ffffffffffffffffffffffffffffffffffffffff168152602001908152602001600020819055508173ffffffffffffffffffffffffffffffffffffffff168373ffffffffffffffffffffffffffffffffffffffff167f8c5be1e5ebec7d5bd14f71427d1e84f3dd0314c0f7b2291e5b200ac8c7c3b92583604051610ac09190611410565b60405180910390a3505050565b6000610ad984846107f2565b90507fffffffffffffffffffffffffffffffffffffffffffffffffffffffffffffffff8114610b535781811015610b45576040517f08c379a0000000000000000000000000000000000000000000000000000000008152600401610b3c906118a3565b60405180910390fd5b610b528484848403610904565b5b50505050565b600073ffffffffffffffffffffffffffffffffffffffff168373ffffffffffffffffffffffffffffffffffffffff1603610bc8576040517f08c379a0000000000000000000000000000000000000000000000000000000008152600401610bbf90611935565b60405180910390fd5b600073ffffffffffffffffffffffffffffffffffffffff168273ffffffffffffffffffffffffffffffffffffffff1603610c37576040517f08c379a0000000000000000000000000000000000000000000000000000000008152600401610c2e906119c7565b60405180910390fd5b610c42838383611236565b60008060008573ffffffffffffffffffffffffffffffffffffffff1673ffffffffffffffffffffffffffffffffffffffff16815260200190815260200160002054905081811015610cc8576040517f08c379a0000000000000000000000000000000000000000000000000000000008152600401610cbf90611a59565b60405180910390fd5b8181036000808673ffffffffffffffffffffffffffffffffffffffff1673ffffffffffffffffffffffffffffffffffffffff16815260200190815260200160002081905550816000808573ffffffffffffffffffffffffffffffffffffffff1673ffffffffffffffffffffffffffffffffffffffff168152602001908152602001600020600082825401925050819055508273ffffffffffffffffffffffffffffffffffffffff168473ffffffffffffffffffffffffffffffffffffffff167fddf252ad1be2c89b69c2b068fc378daa952ba7f163c4a11628f55a4df523b3ef84604051610db69190611410565b60405180910390a3610dc984848461123b565b50505050565b610dd76108fc565b73ffffffffffffffffffffffffffffffffffffffff16610df5610686565b73ffffffffffffffffffffffffffffffffffffffff1614610e4b576040517f08c379a0000000000000000000000000000000000000000000000000000000008152600401610e4290611ac5565b60405180910390fd5b565b600073ffffffffffffffffffffffffffffffffffffffff168273ffffffffffffffffffffffffffffffffffffffff1603610ebc576040517f08c379a0000000000000000000000000000000000000000000000000000000008152600401610eb390611b31565b60405180910390fd5b610ec860008383611236565b8060026000828254610eda91906115db565b92505081905550806000808473ffffffffffffffffffffffffffffffffffffffff1673ffffffffffffffffffffffffffffffffffffffff168152602001908152602001600020600082825401925050819055508173ffffffffffffffffffffffffffffffffffffffff16600073ffffffffffffffffffffffffffffffffffffffff167fddf252ad1be2c89b69c2b068fc378daa952ba7f163c4a11628f55a4df523b3ef83604051610f8b9190611410565b60405180910390a3610f9f6000838361123b565b5050565b6000600560009054906101000a900473ffffffffffffffffffffffffffffffffffffffff16905081600560006101000a81548173ffffffffffffffffffffffffffffffffffffffff021916908373ffffffffffffffffffffffffffffffffffffffff1602179055508173ffffffffffffffffffffffffffffffffffffffff168173ffffffffffffffffffffffffffffffffffffffff167f8be0079c531659141344cd1fd0a4f28419497f9722a3daafe3b4186f6b6457e060405160405180910390a35050565b600073ffffffffffffffffffffffffffffffffffffffff168273ffffffffffffffffffffffffffffffffffffffff16036110d8576040517f08c379a00000000000000000000000000000000000000000000000000000000081526004016110cf90611bc3565b60405180910390fd5b6110e482600083611236565b60008060008473ffffffffffffffffffffffffffffffffffffffff1673ffffffffffffffffffffffffffffffffffffffff1681526020019081526020016000205490508181101561116a576040517f08c379a000000000000000000000000000000000000000000000000000000000815260040161116190611c55565b60405180910390fd5b8181036000808573ffffffffffffffffffffffffffffffffffffffff1673ffffffffffffffffffffffffffffffffffffffff1681526020019081526020016000208190555081600260008282540392505081905550600073ffffffffffffffffffffffffffffffffffffffff168373ffffffffffffffffffffffffffffffffffffffff167fddf252ad1be2c89b69c2b068fc378daa952ba7f163c4a11628f55a4df523b3ef8460405161121d9190611410565b60405180910390a36112318360008461123b565b505050565b505050565b505050565b600081519050919050565b600082825260208201905092915050565b60005b8381101561127a57808201518184015260208101905061125f565b60008484015250505050565b6000601f19601f8301169050919050565b60006112a282611240565b6112ac818561124b565b93506112bc81856020860161125c565b6112c581611286565b840191505092915050565b600060208201905081810360008301526112ea8184611297565b905092915050565b600080fd5b600073ffffffffffffffffffffffffffffffffffffffff82169050919050565b6000611322826112f7565b9050919050565b61133281611317565b811461133d57600080fd5b50565b60008135905061134f81611329565b92915050565b6000819050919050565b61136881611355565b811461137357600080fd5b50565b6000813590506113858161135f565b92915050565b600080604083850312156113a2576113a16112f2565b5b60006113b085828601611340565b92505060206113c185828601611376565b9150509250929050565b60008115159050919050565b6113e0816113cb565b82525050565b60006020820190506113fb60008301846113d7565b92915050565b61140a81611355565b82525050565b60006020820190506114256000830184611401565b92915050565b600080600060608486031215611444576114436112f2565b5b600061145286828701611340565b935050602061146386828701611340565b925050604061147486828701611376565b9150509250925092565b600060ff82169050919050565b6114948161147e565b82525050565b60006020820190506114af600083018461148b565b92915050565b6000602082840312156114cb576114ca6112f2565b5b60006114d984828501611340565b91505092915050565b6114eb81611317565b82525050565b600060208201905061150660008301846114e2565b92915050565b60008060408385031215611523576115226112f2565b5b600061153185828601611340565b925050602061154285828601611340565b9150509250929050565b7f4e487b7100000000000000000000000000000000000000000000000000000000600052602260045260246000fd5b6000600282049050600182168061159357607f821691505b6020821081036115a6576115a561154c565b5b50919050565b7f4e487b7100000000000000000000000000000000000000000000000000000000600052601160045260246000fd5b60006115e682611355565b91506115f183611355565b9250828201905080821115611609576116086115ac565b5b92915050565b7f45524332303a2064656372656173656420616c6c6f77616e63652062656c6f7760008201527f207a65726f000000000000000000000000000000000000000000000000000000602082015250565b600061166b60258361124b565b91506116768261160f565b604082019050919050565b6000602082019050818103600083015261169a8161165e565b9050919050565b7f4f776e61626c653a206e6577206f776e657220697320746865207a65726f206160008201527f6464726573730000000000000000000000000000000000000000000000000000602082015250565b60006116fd60268361124b565b9150611708826116a1565b604082019050919050565b6000602082019050818103600083015261172c816116f0565b9050919050565b7f45524332303a20617070726f76652066726f6d20746865207a65726f2061646460008201527f7265737300000000000000000000000000000000000000000000000000000000602082015250565b600061178f60248361124b565b915061179a82611733565b604082019050919050565b600060208201905081810360008301526117be81611782565b9050919050565b7f45524332303a20617070726f766520746f20746865207a65726f20616464726560008201527f7373000000000000000000000000000000000000000000000000000000000000602082015250565b600061182160228361124b565b915061182c826117c5565b604082019050919050565b6000602082019050818103600083015261185081611814565b9050919050565b7f45524332303a20696e73756666696369656e7420616c6c6f77616e6365000000600082015250565b600061188d601d8361124b565b915061189882611857565b602082019050919050565b600060208201905081810360008301526118bc81611880565b9050919050565b7f45524332303a207472616e736665722066726f6d20746865207a65726f20616460008201527f6472657373000000000000000000000000000000000000000000000000000000602082015250565b600061191f60258361124b565b915061192a826118c3565b604082019050919050565b6000602082019050818103600083015261194e81611912565b9050919050565b7f45524332303a207472616e7366657220746f20746865207a65726f206164647260008201527f6573730000000000000000000000000000000000000000000000000000000000602082015250565b60006119b160238361124b565b91506119bc82611955565b604082019050919050565b600060208201905081810360008301526119e0816119a4565b9050919050565b7f45524332303a207472616e7366657220616d6f756e742065786365656473206260008201527f616c616e63650000000000000000000000000000000000000000000000000000602082015250565b6000611a4360268361124b565b9150611a4e826119e7565b604082019050919050565b60006020820190508181036000830152611a7281611a36565b9050919050565b7f4f776e61626c653a2063616c6c6572206973206e6f7420746865206f776e6572600082015250565b6000611aaf60208361124b565b9150611aba82611a79565b602082019050919050565b60006020820190508181036000830152611ade81611aa2565b9050919050565b7f45524332303a206d696e7420746f20746865207a65726f206164647265737300600082015250565b6000611b1b601f8361124b565b9150611b2682611ae5565b602082019050919050565b60006020820190508181036000830152611b4a81611b0e565b9050919050565b7f45524332303a206275726e2066726f6d20746865207a65726f2061646472657360008201527f7300000000000000000000000000000000000000000000000000000000000000602082015250565b6000611bad60218361124b565b9150611bb882611b51565b604082019050919050565b60006020820190508181036000830152611bdc81611ba0565b9050919050565b7f45524332303a206275726e20616d6f756e7420657863656564732062616c616e60008201527f6365000000000000000000000000000000000000000000000000000000000000602082015250565b6000611c3f60228361124b565b9150611c4a82611be3565b604082019050919050565b60006020820190508181036000830152611c6e81611c32565b905091905056fea26469706673582212205f4be7d912a365db30440cd27c01e37489dfc26660f367cbdc675288c178fbb464736f6c63430008140033",
  "linkReferences": {},
  "deployedLinkReferences": {}
}