{
  "_format": "hh-sol-artifact-1",
  "contractName": "RWAMarketplace",
  "sourceName": "contracts/RWAMarketplace.sol",
  "abi": [
    {
      "anonymous": false,
      "inputs": [
        {
          "indexed": true,
          "internalType": "uint256",
          "name": "listingId",
          "type": "uint256"
        }
      ],
      "name": "ListingCanceled",
      "type": "event"
    },
    {
      "anonymous": false,
      "inputs": [
        {
          "indexed": true,
          "internalType": "address",
          "name": "previousOwner",
          "type": "address"
        },
        {
          "indexed": true,
          "internalType": "address",
          "name": "newOwner",
          "type": "address"
        }
      ],
      "name": "OwnershipTransferred",
      "type": "event"
    },
    {
      "anonymous": false,
      "inputs": [
        {
          "indexed": true,
          "internalType": "uint256",
          "name": "listingId",
          "type": "uint256"
        },
        {
          "indexed": true,
          "internalType": "address",
          "name": "seller",
          "type": "address"
        },
        {
          "indexed": false,
          "internalType": "address",
          "name": "token",
          "type": "address"
        },
        {
          "indexed": false,
          "internalType": "uint256",
          "name": "amount",
          "type": "uint256"
        },
        {
          "indexed": false,
          "internalType": "uint256",
          "name": "pricePerUnit",
          "type": "uint256"
        }
      ],
      "name": "PropertyListed",
      "type": "event"
    },
    {
      "anonymous": false,
      "inputs": [
        {
          "indexed": true,
          "internalType": "uint256",
          "name": "listingId",
          "type": "uint256"
        },
        {
          "indexed": true,
          "internalType": "address",
          "name": "buyer",
          "type": "address"
        },
        {
          "indexed": false,
          "internalType": "uint256",
          "name": "amount",
          "type": "uint256"
        },
        {
          "indexed": false,
          "internalType": "uint256",
          "name": "totalPrice",
          "type": "uint256"
        }
      ],
      "name": "PropertyPurchased",
      "type": "event"
    },
    {
      "inputs": [
        {
          "internalType": "uint256",
          "name": "listingId",
          "type": "uint256"
        }
      ],
      "name": "cancelListing",
      "outputs": [],
      "stateMutability": "nonpayable",
      "type": "function"
    },
    {
      "inputs": [
        {
          "internalType": "address",
          "name": "token",
          "type": "address"
        },
        {
          "internalType": "uint256",
          "name": "amount",
          "type": "uint256"
        },
        {
          "internalType": "uint256",
          "name": "pricePerUnit",
          "type": "uint256"
        }
      ],
      "name": "listForSale",
      "outputs": [
        {
          "internalType": "uint256",
          "name": "",
          "type": "uint256"
        }
      ],
      "stateMutability": "nonpayable",
      "type": "function"
    },
    {
      "inputs": [
        {
          "internalType": "uint256",
          "name": "",
          "type": "uint256"
        }
      ],
      "name": "listings",
      "outputs": [
        {
          "internalType": "address",
          "name": "seller",
          "type": "address"
        },
        {
          "internalType": "address",
          "name": "token",
          "type": "address"
        },
        {
          "internalType": "uint256",
          "name": "amount",
          "type": "uint256"
        },
        {
          "internalType": "uint256",
          "name": "pricePerUnit",
          "type": "uint256"
        },
        {
          "internalType": "bool",
          "name": "active",
          "type": "bool"
        }
      ],
      "stateMutability": "view",
      "type": "function"
    },
    {
      "inputs": [],
      "name": "nextListingId",
      "outputs": [
        {
          "internalType": "uint256",
          "name": "",
          "type": "uint256"
        }
      ],
      "stateMutability": "view",
      "type": "function"
    },
    {
      "inputs": [],
      "name": "owner",
      "outputs": [
        {
          "internalType": "address",
          "name": "",
          "type": "address"
        }
      ],
      "stateMutability": "view",
      "type": "function"
    },
    {
      "inputs": [
        {
          "internalType": "uint256",
          "name": "listingId",
          "type": "uint256"
        },
        {
          "internalType": "uint256",
          "name": "amount",
          "type": "uint256"
        }
      ],
      "name": "purchase",
      "outputs": [],
      "stateMutability": "payable",
      "type": "function"
    },
    {
      "inputs": [],
      "name": "renounceOwnership",
      "outputs": [],
      "stateMutability": "nonpayable",
      "type": "function"
    },
    {
      "inputs": [
        {
          "internalType": "address",
          "name": "newOwner",
          "type": "address"
        }
      ],
      "name": "transferOwnership",
      "outputs": [],
      "stateMutability": "nonpayable",
      "type": "function"
    },
    {
      "inputs": [
        {
          "internalType": "address payable",
          "name": "recipient",
          "type": "address"
        }
      ],
      "name": "withdraw",
      "outputs": [],
      "stateMutability": "nonpayable",
      "type": "function"
    }
  ],
  "bytecode": "0x608060405234801561001057600080fd5b50600160008190555061003561002a61003a60201b60201c565b61004260201b60201c565b610108565b600033905090565b6000600160009054906101000a900473ffffffffffffffffffffffffffffffffffffffff16905081600160006101000a81548173ffffffffffffffffffffffffffffffffffffffff021916908373ffffffffffffffffffffffffffffffffffffffff1602179055508173ffffffffffffffffffffffffffffffffffffffff168173ffffffffffffffffffffffffffffffffffffffff167f8be0079c531659141344cd1fd0a4f28419497f9722a3daafe3b4186f6b6457e060405160405180910390a35050565b611b5f806101176000396000f3fe6080604052600436106100865760003560e01c80638da5cb5b116100595780638da5cb5b14610110578063aaccf1ec1461013b578063de74e57b14610166578063f2fde38b146101a7578063fe3329fa146101d057610086565b8063305a67a81461008b57806351cff8d9146100b457806370876c98146100dd578063715018a6146100f9575b600080fd5b34801561009757600080fd5b506100b260048036038101906100ad9190611019565b61020d565b005b3480156100c057600080fd5b506100db60048036038101906100d691906110a4565b610419565b005b6100f760048036038101906100f291906110d1565b61046b565b005b34801561010557600080fd5b5061010e6106e2565b005b34801561011c57600080fd5b506101256106f6565b6040516101329190611132565b60405180910390f35b34801561014757600080fd5b50610150610720565b60405161015d919061115c565b60405180910390f35b34801561017257600080fd5b5061018d60048036038101906101889190611019565b610726565b60405161019e959493929190611192565b60405180910390f35b3480156101b357600080fd5b506101ce60048036038101906101c99190611211565b6107a9565b005b3480156101dc57600080fd5b506101f760048036038101906101f2919061123e565b61082c565b604051610204919061115c565b60405180910390f35b610215610a95565b60006002600083815260200190815260200160002090508060040160009054906101000a900460ff1661027d576040517f08c379a0000000000000000000000000000000000000000000000000000000008152600401610274906112ee565b60405180910390fd5b8060000160009054906101000a900473ffffffffffffffffffffffffffffffffffffffff1673ffffffffffffffffffffffffffffffffffffffff163373ffffffffffffffffffffffffffffffffffffffff16148061030d57506102de6106f6565b73ffffffffffffffffffffffffffffffffffffffff163373ffffffffffffffffffffffffffffffffffffffff16145b61034c576040517f08c379a00000000000000000000000000000000000000000000000000000000081526004016103439061135a565b60405180910390fd5b60008160040160006101000a81548160ff0219169083151502179055506103e08160000160009054906101000a900473ffffffffffffffffffffffffffffffffffffffff1682600201548360010160009054906101000a900473ffffffffffffffffffffffffffffffffffffffff1673ffffffffffffffffffffffffffffffffffffffff16610ae49092919063ffffffff16565b817f5d7a33421ffa4bc07eb8929c5ace6393d3aa5ec3775e4e2f442527876b7dbe8860405160405180910390a250610416610b6a565b50565b610421610b74565b8073ffffffffffffffffffffffffffffffffffffffff166108fc479081150290604051600060405180830381858888f19350505050158015610467573d6000803e3d6000fd5b5050565b610473610a95565b60006002600084815260200190815260200160002090508060040160009054906101000a900460ff166104db576040517f08c379a00000000000000000000000000000000000000000000000000000000081526004016104d2906112ee565b60405180910390fd5b6000821180156104ef575080600201548211155b61052e576040517f08c379a0000000000000000000000000000000000000000000000000000000008152600401610525906113c6565b60405180910390fd5b60008160030154836105409190611415565b9050803414610584576040517f08c379a000000000000000000000000000000000000000000000000000000000815260040161057b906114a3565b60405180910390fd5b8282600201600082825461059891906114c3565b9250508190555060008260020154036105c95760008260040160006101000a81548160ff0219169083151502179055505b8160000160009054906101000a900473ffffffffffffffffffffffffffffffffffffffff1673ffffffffffffffffffffffffffffffffffffffff166108fc829081150290604051600060405180830381858888f19350505050158015610633573d6000803e3d6000fd5b5061068333848460010160009054906101000a900473ffffffffffffffffffffffffffffffffffffffff1673ffffffffffffffffffffffffffffffffffffffff16610ae49092919063ffffffff16565b3373ffffffffffffffffffffffffffffffffffffffff16847f06f7e1a3f96650ac8fa02f57505b25ca3951b25af81f609fb0b535ba53043ad785846040516106cc9291906114f7565b60405180910390a350506106de610b6a565b5050565b6106ea610b74565b6106f46000610bf2565b565b6000600160009054906101000a900473ffffffffffffffffffffffffffffffffffffffff16905090565b60035481565b60026020528060005260406000206000915090508060000160009054906101000a900473ffffffffffffffffffffffffffffffffffffffff16908060010160009054906101000a900473ffffffffffffffffffffffffffffffffffffffff16908060020154908060030154908060040160009054906101000a900460ff16905085565b6107b1610b74565b600073ffffffffffffffffffffffffffffffffffffffff168173ffffffffffffffffffffffffffffffffffffffff1603610820576040517f08c379a000000000000000000000000000000000000000000000000000000000815260040161081790611592565b60405180910390fd5b61082981610bf2565b50565b6000808311610870576040517f08c379a0000000000000000000000000000000000000000000000000000000008152600401610867906115fe565b60405180910390fd5b600082116108b3576040517f08c379a00000000000000000000000000000000000000000000000000000000081526004016108aa9061166a565b60405180910390fd5b6108e03330858773ffffffffffffffffffffffffffffffffffffffff16610cb8909392919063ffffffff16565b6040518060a001604052803373ffffffffffffffffffffffffffffffffffffffff1681526020018573ffffffffffffffffffffffffffffffffffffffff1681526020018481526020018381526020016001151581525060026000600354815260200190815260200160002060008201518160000160006101000a81548173ffffffffffffffffffffffffffffffffffffffff021916908373ffffffffffffffffffffffffffffffffffffffff16021790555060208201518160010160006101000a81548173ffffffffffffffffffffffffffffffffffffffff021916908373ffffffffffffffffffffffffffffffffffffffff160217905550604082015181600201556060820151816003015560808201518160040160006101000a81548160ff0219169083151502179055509050503373ffffffffffffffffffffffffffffffffffffffff166003547fe1075ad92da866955482a097fd95c1a54a05a812d51d2b61b4cc433c9ce979e0868686604051610a5d9392919061168a565b60405180910390a360036000815480929190610a78906116c1565b91905055506001600354610a8c91906114c3565b90509392505050565b600260005403610ada576040517f08c379a0000000000000000000000000000000000000000000000000000000008152600401610ad190611755565b60405180910390fd5b6002600081905550565b610b658363a9059cbb60e01b8484604051602401610b03929190611775565b604051602081830303815290604052907bffffffffffffffffffffffffffffffffffffffffffffffffffffffff19166020820180517bffffffffffffffffffffffffffffffffffffffffffffffffffffffff8381831617835250505050610d41565b505050565b6001600081905550565b610b7c610e09565b73ffffffffffffffffffffffffffffffffffffffff16610b9a6106f6565b73ffffffffffffffffffffffffffffffffffffffff1614610bf0576040517f08c379a0000000000000000000000000000000000000000000000000000000008152600401610be7906117ea565b60405180910390fd5b565b6000600160009054906101000a900473ffffffffffffffffffffffffffffffffffffffff16905081600160006101000a81548173ffffffffffffffffffffffffffffffffffffffff021916908373ffffffffffffffffffffffffffffffffffffffff1602179055508173ffffffffffffffffffffffffffffffffffffffff168173ffffffffffffffffffffffffffffffffffffffff167f8be0079c531659141344cd1fd0a4f28419497f9722a3daafe3b4186f6b6457e060405160405180910390a35050565b610d3b846323b872dd60e01b858585604051602401610cd99392919061180a565b604051602081830303815290604052907bffffffffffffffffffffffffffffffffffffffffffffffffffffffff19166020820180517bffffffffffffffffffffffffffffffffffffffffffffffffffffffff8381831617835250505050610d41565b50505050565b6000610da3826040518060400160405280602081526020017f5361666545524332303a206c6f772d6c6576656c2063616c6c206661696c65648152508573ffffffffffffffffffffffffffffffffffffffff16610e119092919063ffffffff16565b9050600081511480610dc5575080806020019051810190610dc4919061186d565b5b610e04576040517f08c379a0000000000000000000000000000000000000000000000000000000008152600401610dfb9061190c565b60405180910390fd5b505050565b600033905090565b6060610e208484600085610e29565b90509392505050565b606082471015610e6e576040517f08c379a0000000000000000000000000000000000000000000000000000000008152600401610e659061199e565b60405180910390fd5b6000808673ffffffffffffffffffffffffffffffffffffffff168587604051610e979190611a2f565b60006040518083038185875af1925050503d8060008114610ed4576040519150601f19603f3d011682016040523d82523d6000602084013e610ed9565b606091505b5091509150610eea87838387610ef6565b92505050949350505050565b60608315610f58576000835103610f5057610f1085610f6b565b610f4f576040517f08c379a0000000000000000000000000000000000000000000000000000000008152600401610f4690611a92565b60405180910390fd5b5b829050610f63565b610f628383610f8e565b5b949350505050565b6000808273ffffffffffffffffffffffffffffffffffffffff163b119050919050565b600082511115610fa15781518083602001fd5b806040517f08c379a0000000000000000000000000000000000000000000000000000000008152600401610fd59190611b07565b60405180910390fd5b600080fd5b6000819050919050565b610ff681610fe3565b811461100157600080fd5b50565b60008135905061101381610fed565b92915050565b60006020828403121561102f5761102e610fde565b5b600061103d84828501611004565b91505092915050565b600073ffffffffffffffffffffffffffffffffffffffff82169050919050565b600061107182611046565b9050919050565b61108181611066565b811461108c57600080fd5b50565b60008135905061109e81611078565b92915050565b6000602082840312156110ba576110b9610fde565b5b60006110c88482850161108f565b91505092915050565b600080604083850312156110e8576110e7610fde565b5b60006110f685828601611004565b925050602061110785828601611004565b9150509250929050565b600061111c82611046565b9050919050565b61112c81611111565b82525050565b60006020820190506111476000830184611123565b92915050565b61115681610fe3565b82525050565b6000602082019050611171600083018461114d565b92915050565b60008115159050919050565b61118c81611177565b82525050565b600060a0820190506111a76000830188611123565b6111b46020830187611123565b6111c1604083018661114d565b6111ce606083018561114d565b6111db6080830184611183565b9695505050505050565b6111ee81611111565b81146111f957600080fd5b50565b60008135905061120b816111e5565b92915050565b60006020828403121561122757611226610fde565b5b6000611235848285016111fc565b91505092915050565b60008060006060848603121561125757611256610fde565b5b6000611265868287016111fc565b935050602061127686828701611004565b925050604061128786828701611004565b9150509250925092565b600082825260208201905092915050565b7f4c697374696e67206e6f74206163746976650000000000000000000000000000600082015250565b60006112d8601283611291565b91506112e3826112a2565b602082019050919050565b60006020820190508181036000830152611307816112cb565b9050919050565b7f4e6f7420617574686f72697a6564000000000000000000000000000000000000600082015250565b6000611344600e83611291565b915061134f8261130e565b602082019050919050565b6000602082019050818103600083015261137381611337565b9050919050565b7f496e76616c696420707572636861736520616d6f756e74000000000000000000600082015250565b60006113b0601783611291565b91506113bb8261137a565b602082019050919050565b600060208201905081810360008301526113df816113a3565b9050919050565b7f4e487b7100000000000000000000000000000000000000000000000000000000600052601160045260246000fd5b600061142082610fe3565b915061142b83610fe3565b925082820261143981610fe3565b915082820484148315176114505761144f6113e6565b5b5092915050565b7f496e636f7272656374207061796d656e7420616d6f756e740000000000000000600082015250565b600061148d601883611291565b915061149882611457565b602082019050919050565b600060208201905081810360008301526114bc81611480565b9050919050565b60006114ce82610fe3565b91506114d983610fe3565b92508282039050818111156114f1576114f06113e6565b5b92915050565b600060408201905061150c600083018561114d565b611519602083018461114d565b9392505050565b7f4f776e61626c653a206e6577206f776e657220697320746865207a65726f206160008201527f6464726573730000000000000000000000000000000000000000000000000000602082015250565b600061157c602683611291565b915061158782611520565b604082019050919050565b600060208201905081810360008301526115ab8161156f565b9050919050565b7f416d6f756e74206d75737420626520706f736974697665000000000000000000600082015250565b60006115e8601783611291565b91506115f3826115b2565b602082019050919050565b60006020820190508181036000830152611617816115db565b9050919050565b7f5072696365206d75737420626520706f73697469766500000000000000000000600082015250565b6000611654601683611291565b915061165f8261161e565b602082019050919050565b6000602082019050818103600083015261168381611647565b9050919050565b600060608201905061169f6000830186611123565b6116ac602083018561114d565b6116b9604083018461114d565b949350505050565b60006116cc82610fe3565b91507fffffffffffffffffffffffffffffffffffffffffffffffffffffffffffffffff82036116fe576116fd6113e6565b5b600182019050919050565b7f5265656e7472616e637947756172643a207265656e7472616e742063616c6c00600082015250565b600061173f601f83611291565b915061174a82611709565b602082019050919050565b6000602082019050818103600083015261176e81611732565b9050919050565b600060408201905061178a6000830185611123565b611797602083018461114d565b9392505050565b7f4f776e61626c653a2063616c6c6572206973206e6f7420746865206f776e6572600082015250565b60006117d4602083611291565b91506117df8261179e565b602082019050919050565b60006020820190508181036000830152611803816117c7565b9050919050565b600060608201905061181f6000830186611123565b61182c6020830185611123565b611839604083018461114d565b949350505050565b61184a81611177565b811461185557600080fd5b50565b60008151905061186781611841565b92915050565b60006020828403121561188357611882610fde565b5b600061189184828501611858565b91505092915050565b7f5361666545524332303a204552433230206f7065726174696f6e20646964206e60008201527f6f74207375636365656400000000000000000000000000000000000000000000602082015250565b60006118f6602a83611291565b91506119018261189a565b604082019050919050565b60006020820190508181036000830152611925816118e9565b9050919050565b7f416464726573733a20696e73756666696369656e742062616c616e636520666f60008201527f722063616c6c0000000000000000000000000000000000000000000000000000602082015250565b6000611988602683611291565b91506119938261192c565b604082019050919050565b600060208201905081810360008301526119b78161197b565b9050919050565b600081519050919050565b600081905092915050565b60005b838110156119f25780820151818401526020810190506119d7565b60008484015250505050565b6000611a09826119be565b611a1381856119c9565b9350611a238185602086016119d4565b80840191505092915050565b6000611a3b82846119fe565b915081905092915050565b7f416464726573733a2063616c6c20746f206e6f6e2d636f6e7472616374000000600082015250565b6000611a7c601d83611291565b9150611a8782611a46565b602082019050919050565b60006020820190508181036000830152611aab81611a6f565b9050919050565b600081519050919050565b6000601f19601f8301169050919050565b6000611ad982611ab2565b611ae38185611291565b9350611af38185602086016119d4565b611afc81611abd565b840191505092915050565b60006020820190508181036000830152611b218184611ace565b90509291505056fea26469706673582212207e470ecaa30d78e5a9e5402139c1372d9384faac0a7b3e96f8051bc97e0520be64736f6c63430008140033",
  "linkReferences": {},
  "deployedLinkReferences": {}
}